:020000040800F2
:10000000F8090020E9480008050300080703000874
:100010000B0300080F030008130300080000000092
:1000200000000000000000000000000017030008AE
:1000300019030008000000001B0300081D0300084E
:100040000349000803490008034900080349000860
:100050000349000803490008034900080349000850
:100060000349000803490008034900080349000840
:100070000349000803490008034900080349000830
:100080000349000803490008034900080349000820
:100090000349000803490008034900080349000810
:1000A0000349000803490008034900080349000800
:1000B000E33A0008593B0008053A000803490008E4
:1000C00003490008034900080349000803490008E0
:1000D00003490008F94600080349000803490008DD
:1000E00003450008034900080349000803490008C4
:1000F00003490008034900080349000803490008B0
:10010000034900080349000803490008034900089F
:10011000034900080349000803490008034900088F
:10012000034900080349000803490008034900087F
:1001300000F002F800F090F80AA090E8000C824469
:100140008344AAF10107DA4501D100F085F8AFF246
:10015000090EBAE80F0013F0010F18BFFB1A43F0A5
:10016000010318476CC600008CC60000103A24BF7B
:1001700078C878C1FAD8520724BF30C830C144BF0C
:1001800004680C607047000000230024002500264E
:10019000103A28BF78C1FBD8520728BF30C148BFEA
:1001A0000B6070476E2906F00F85702906F05186A6
:1001B000662908F04980652908F04680672908F01B
:1001C00043806129AFF3008003681B0A28BF41F018
:1001D0008001692906F0BC84642906F0B984752978
:1001E00006F0B6846F2906F0DE85782906F01D86B4
:1001F000E92906F07985E42906F07685F52906F0E7
:100200007385EF2906F0DB85F82906F01C86036864
:10021000DB0928BF41F08001632907F0A081732921
:1002200007F0A581E32907F0B081F32907F0B58134
:10023000002070471FB507F001FA040000200021DC
:1002400007F000FF401C60600020002107F0E4FE82
:10025000E0601FBD10B510BD07F0C3F91146FFF7F0
:10026000E9FF00F009F807F09FFA03B4FFF7F2FF87
:1002700003BC07F0E7FA00004FF4A06004F054FB61
:1002800004F0D0F901F08CFC01F0A3FC00F038F987
:1002900001F0F8FC04F0AAF901F026FC04F0FEF8E5
:1002A00004F062F801F0C2FB4FF4614004F053FA2D
:1002B00002F0F0FC41F61F414EF65F2003F01FFCF8
:1002C00002E00AA000F0DAF90A4803F039F8002841
:1002D000F7D109A000F0D2F944F61F6141F61F40A2
:1002E00003F0D1FB01E001F078FBFCE7C1ACBDD32A
:1002F000D6D0000028000020C1ACBDD3B3C9B9A638
:10030000A3A10000704700BFFEE700BFFEE700BFEB
:10031000FEE700BFFEE77047704770477047000078
:100320000CB50020019000906C48006840F48030CB
:100330006A49086000BF6948006800F40030009016
:100340000198401C0190009818B90198B0F5A06F71
:10035000F1D16248006800F4003010B10120009033
:1003600001E0002000900098012843D15C4800681B
:1003700040F010005A4908600846006820F0030069
:1003800008600846006840F0020008605348406872
:10039000524948600846406848600846406840F452
:1003A000806048600846406820F47C104860084639
:1003B000406840F4E81048600846006840F08070EB
:1003C000086000BF4548006800F000700028F9D0C0
:1003D0004248406820F003004049486008464068B1
:1003E00040F00200486000BF3C48406800F00C004C
:1003F0000828F9D10CBD10B5FFF792FF10BD10B55C
:100400003648006840F001003449086008464068FA
:10041000344908403149486008460068324908407C
:100420002E4908600846006820F4802008600846CD
:10043000406820F4FE0048604FF41F008860FFF71A
:10044000DAFF4FF000602949086010BD10B50021A7
:1004500000200022214B5B6803F00C0121B104292C
:1004600006D0082928D107E0214B224C236027E041
:100470001F4B204C236023E0184B5B6803F4701083
:10048000164B5B6803F48032022303EB904022B9E1
:10049000194B4343174C23600DE0104B5B6803F48A
:1004A000003323B1144B4343124C236003E0104B41
:1004B0004343104C236003E00D4B0E4C236000BF00
:1004C00000BF064B5B68C3F303130C4CE15C094BA4
:1004D0001B68CB40074C236010BD00000010024099
:1004E000002002400000FFF8FFFFF6FE08ED00E0EC
:1004F00000127A000000002000093D0004000020E6
:1005000008B502F0CBFA4FF6FF708023A02200213D
:100510000090084601F0DCFC08BD08B54FF6FF70FE
:100520008023A02200210090084601F0D1FC08BDE4
:100530000EB5FFF7F2FF002010214FF6FF724FF4C7
:100540007843CDE900210290F8A2014602F03AF882
:10055000002010214FF6FF720346CDE900210290E2
:10056000F4A202F019F9002010214FF6FF720346A1
:10057000CDE900210290F0A20F2002F023F8002024
:1005800010214FF6FF720346CDE900210290EDA243
:10059000202102F001F9002010214FF6FF720346DE
:1005A000CDE900210290E8A220210F2002F00AF8F4
:1005B000002010214FF6FF720346CDE90021029082
:1005C000E4A2302102F0E8F8002010214FF6FF727B
:1005D0000346CDE900210290DFA230210F2001F077
:1005E000F1FF002010214FF6FF720346CDE90021F4
:1005F0000290DBA230212D2002F0CEF80020102145
:100600004FF6FF720346CDE900210290D5A23021BA
:100610004B2001F0D7FF002010214FF6FF72034658
:10062000CDE900210290D0A2402102F0B5F80020CF
:1006300010214FF6FF720346CDE900210290CBA2B4
:1006400040210F2001F0BEFF002010214FF6FF7265
:100650000346CDE900210290C8A2502102F09CF887
:10066000002010214FF6FF720346CDE900210290D1
:10067000C3A250210F2001F0A5FF0EBD3EB50446D8
:10068000FFF74BFF002010214FF6FF720346CDE924
:10069000002102902246014601F094FF3EBD3EB586
:1006A000002401F00EFB054635E0062C03DB01F0CB
:1006B00008FB05462FE0302D01DB392D03DD412DF0
:1006C00013DB442D11DC00201021CDE9000104EBE7
:1006D000C401029088B24FF478432A46502101F0B9
:1006E000B7FFA9480555641C11E02A2D0FD14FF61C
:1006F000FF7004EBC40109318AB204EBC40109396B
:10070000009088B26023502101F0E2FB641E01F0EA
:10071000D8FA054600BF232D01D0002CC5DA601C95
:1007200008B900203EBD99A0FFF7A8FF00201021C6
:100730004FF6FF720346CDE90021029096A201F028
:1007400041FF00BF01F0BDFA2328FBD10120E9E7FA
:1007500030B503460C46002100BF06E0585C655CDE
:10076000A84201D0002030BD491C9142F6DB012097
:10077000F9E710B503F005FE8B49087008460078CC
:1007800038B108460078052803D0084600780628C6
:1007900003D103F0D0FD002010BD8348007801286C
:1007A0000BD081480078022807D07F4800780328C2
:1007B00003D07D480078042806D17CA0FFF75EFFB7
:1007C00003F0B9FD0120E7E700BFE5E770B586B0AB
:1007D00000262DE10024002501F073FA05469AE079
:1007E0007548007820B101F00BFA002072490870BA
:1007F0007248007820B101F020FA00206F4908709B
:100800006F48007898B103F06BF820B101206D4972
:1008100008706D490870FFF7ACFF28B101206A49E4
:100820000870002067490870002065490870664814
:10083000007818B965480078012836D1002062494F
:100840000870624908705F48007838B360A0FFF70D
:1008500015FF002010214FF6FF720346CDE900215D
:1008600002905EA201F06BFD002010214FF6FF7296
:100870000346CDE9002102905AA2212001F08CFF0D
:1008800010204FF6FF710022CDE90021029056485A
:10089000028803231021422001F0AAFF4FF4FA70CE
:1008A00003F0FDFE012006B070BD062C03DB01F055
:1008B00008FA05462FE0302D01DB392D03DD412DEF
:1008C00013DB442D11DC00201021CDE9000104EBE5
:1008D000C401029088B24FF478432A46502101F0B7
:1008E000B7FE04A80555641C11E02A2D0FD14FF660
:1008F000FF7004EBC40109318AB204EBC401093969
:10090000009088B26023502101F0E2FA641E01F0E9
:10091000D8F9054600BF232D02D0002CBFF660AFEA
:10092000002C63DA4FF0FF363046BCE7B2CBB5A5FA
:10093000A3BA0000312E0000C9E8D6C3C3DCC2EB65
:1009400000000000322E0000C9E8D6C3D6B8CEC6DB
:1009500000000000332E0000C9E8D6C300000000EC
:1009600049430000BFA80000342E0000C9E8D6C3E8
:10097000BFAAB7A2D5DFC3DCC2EB0000352E000052
:10098000B7B5BBD80000000014000020C9E8D6C3EA
:10099000B3C9B9A6A3A10000B0B4C8B7C8CFBCFC06
:1009A000B7B5BBD8A3A1000022000020BFA8C6ACE9
:1009B000D5FDC8B7A3A100004C0000204D000020C9
:1009C00032000020240000202500002033000020F9
:1009D000B1C8B6D4B3C9B9A6A3A10000B6D4D3A6F2
:1009E0000000000049443A002E000020062204A91D
:1009F000FE48FFF7ADFE20B1FDA0FFF73FFE012648
:100A000003E0FEA0FFF73AFE0026002010214FF67B
:100A1000FF720346CDE900210290AFF2840201F09B
:100A2000D1FD00BF01F04DF92328FBD130463AE754
:100A3000D0E610B50120F44908600020F349C1F860
:100A4000B401C82003F02BFE0020EF4908606E209F
:100A500003F025FE0120EE49C1F8B001C82003F0E3
:100A60001EFE0020E84908600120E849C1F8B401F1
:100A700010BD0EB5FFF7DDFFE6A0FFF7FFFD00207C
:100A800010214FF6FF720346CDE900210290E4A247
:100A900001F082FE002010214FF6FF720346CDE9DF
:100AA00000210290DFA2202001F08CFD4FF40041D4
:100AB000DF4804F0B4F84FF47A7003F0F0FD4FF41F
:100AC0007A7003F0ECFD4FF47A7003F0E8FD4FF418
:100AD0007A7003F0E4FD4FF47A7003F0E0FD4FF418
:100AE0000041D34804F09DF80EBD0EB5FFF715FD8B
:100AF000002010214FF6FF724FF47843CDE900211A
:100B00000290CCA2014601F05DFD002010214FF6BD
:100B1000FF720346CDE900210290CBA23E2101F0F5
:100B200051FD002010214FF6FF720346CDE9002150
:100B300002903A223E21502001F08AFD002010212F
:100B40004FF6FF724FF47843CDE900210290C1A225
:100B500001F038FD002010214FF6FF724FF478436A
:100B6000CDE9002102902A220F2001F071FD002022
:100B700010214FF6FF724FF47843CDE90021029027
:100B8000B5A21E2001F01EFD002010214FF6FF72BD
:100B90004FF47843CDE900210290B2A220211E201B
:100BA00001F010FD002010214FF6FF724FF4784342
:100BB000CDE900210290A7A2302101F003FD002021
:100BC00010214FF6FF724FF47843CDE900210290D7
:100BD000232230210F2001F03BFD002010214FF691
:100BE000FF724FF47843CDE900210290A0A230219A
:100BF0001E2001F0E7FC0EBD3EB5002401F061F8B7
:100C0000054635E0082C03DB01F05BF805462FE0D4
:100C1000302D01DB392D03DD412D13DB442D11DC9B
:100C200000201021CDE9000104EBC401029088B23C
:100C30004FF478432A46502101F00AFD8E480555AD
:100C4000641C11E02A2D0FD14FF6FF7004EBC40194
:100C500009318AB204EBC4010939009088B26023DB
:100C6000502101F035F9641E01F02BF8054600BF54
:100C7000232D01D0002CC5DA601C08B900203EBD30
:100C8000AFF2F820FFF7FAFC002010214FF6FF72B8
:100C90000346CDE900210290AFF2043201F092FC4C
:100CA00000BF01F00EF82328FBD10120E7E7FEB5D5
:100CB0000026FFF732FC002010214FF6FF7203469A
:100CC000CDE9002102906DA2014601F07BFC0020DD
:100CD00010214FF6FF720346CDE9002102905DA27C
:100CE000202101F06FFC002010214FF6FF72034617
:100CF000CDE90021029041222021112001F0A8FC21
:100D0000002010214FF6FF720346CDE9002102902A
:100D10005FA22021222001F055FC002010214FF677
:100D2000FF720346CDE9002102905DA201F034FD7F
:100D300000F0C7FF054602E000F0C3FF0546002DA6
:100D4000FAD075E100F0BDFF0546332D4AD004DC32
:100D5000312D07D0322D46D12AE0342D44D0412DFB
:100D6000F9D123E150A0FFF789FC00F0AAFF044667
:100D700002E000F0A6FF0446232C01D02A2CF8D173
:100D8000232C13D14E4803F09FFDFF204D490870DE
:100D900048708870C8704CA0FFF770FCFFF749FEE0
:100DA00040F2DC5003F07BFC012600E000263EE12F
:100DB00048A0FFF763FC00F084FF044602E000F067
:100DC00080FF0446232C01D02A2CF8D1232C0CD1EF
:100DD000464803F079FDFF20454908704870887047
:100DE000C87087E094E021E1B9E08FE014000020B2
:100DF000C3DCC2EBD5FDC8B7A3A10000C3DCC2EBC6
:100E0000B4EDCEF3A3A10000B001214200002242C4
:100E100000002142BFAAC3C5B3C9B9A6A3A100005F
:100E200035730000BAF3B9D8C3C5A3A10000000010
:100E300000100140BBB6D3ADCAB9D3C3D6C7C4DC1A
:100E4000C3C5CBF8A3A10000C7EBCAE4C8EBC3DC61
:100E5000C2EB0000B0B40000BCFCBDF8C8EBB2CBE4
:100E6000B5A50000BBF2C7E5B3FDC3DCC2EB0000D3
:100E7000BCFCC8B7C8CF00001A000020C7EBCAE40A
:100E8000C8EBC9BEB3FDB5C4BFA8C6ACBAC50000A7
:100E9000BCFCC9BEB3FDC8ABB2BFD6B8CEC600005D
:100EA0003C312D343E000000C8B7B6A8D2AAC9BE56
:100EB000B3FDBFA8C6ACD2BBC2F0A3BF0000000008
:100EC00000C000083C000020C9BEB3FDB3C9B9A6EC
:100ED000A3A10000C8B7B6A8D2AAC9BEB3FDBFA8D7
:100EE000C6ACB6FEC2F0A3BF0000000000C40008FC
:100EF00040000020AFF23000FFF7C0FBFFF799FD84
:100F000040F2DC5003F0CBFB012600E000268EE02F
:100F1000FEA0FFF7B3FB00F0D4FE044602E000F0B1
:100F2000D0FE0446232C01D02A2CF8D1232C14D136
:100F3000FC4803F0C9FCFF20FB490870487088702A
:100F4000C870AFF27C00FFF799FBFFF772FD40F22B
:100F5000DC5003F0A4FB012600E0002667E0F3A0CC
:100F6000FFF78CFB00F0ADFE044602E000F0A9FEA6
:100F70000446232C01D02A2CF8D1232C14D1F1487B
:100F800003F0A2FCFF20F049087048708870C87018
:100F9000AFF2CC00FFF772FBFFF74BFD40F2DC50E5
:100FA00003F07DFB012600E0002640E0E7A0FFF70C
:100FB00065FB00F086FE044602E000F082FE044677
:100FC000232C01D02A2CF8D1232C2ED1E54803F074
:100FD0007BFCFF20E449087048708870C870E348C3
:100FE00003F072FCFF20E249087048708870C870F6
:100FF000CC4803F069FCFF20CB490870487088702A
:10100000C870D04803F060FCFF20CF4908704870DA
:101010008870C870AFF25010FFF730FBFFF709FD82
:1010200040F2DC5003F03BFB012600E000BF00BFB4
:1010300016B92A2D7FF486AE0EB90020FEBD012020
:10104000FCE710B50120CB4908600020CA49C1F86F
:10105000B8014FF4FA7003F022FB0020C549086084
:101060000120C549C1F8B80110BD3EB50024C3A098
:10107000FFF704FB00F025FE044615E2C2495220AA
:1010800002F03CFF00287DD1C04802F061FF00283B
:10109000F9D1B5480078FF280FD1B3484078FF2830
:1010A0000BD1B1488078FF2807D1AF48C078FF281E
:1010B00003D10020B64908703EE0AD480078FF2813
:1010C0000FD1AB484078FF280BD1A9488078FF2882
:1010D00007D1A748C078FF2803D10120AC49087088
:1010E0002AE091480078FF280FD18F484078FF28E8
:1010F0000BD18D488078FF2807D18B48C078FF2816
:1011000003D10220A249087016E08F480078FF281A
:101110000FD18D484078FF280BD18B488078FF286D
:1011200007D18948C078FF2803D103209849087067
:1011300002E0042096490870944800788A490978AA
:10114000884214D1914840788749497888420ED125
:101150008E48807884498978884208D18B48C07845
:101160008149C978884202D1052089490870874899
:1011700000787F490978884216D1844840787C49B4
:10118000497800E08DE188420ED180488078784926
:101190008978884208D17D48C0787549C9788842E5
:1011A00002D105207A490870784800785E490978AC
:1011B000884214D1754840785B49497888420ED1FD
:1011C0007248807858498978884208D16F48C07839
:1011D0005549C978884202D105206D4908706B488D
:1011E000007859490978884214D1684840785649AE
:1011F000497888420ED16548807853498978884279
:1012000008D16248C0785049C978884202D1052087
:101210005F4908705E480078062875D2DFE800F064
:10122000032E59E9FDFC594800784F49087057488A
:10123000407848705548807888705448C078C870A5
:101240000846C0780090084683784278017845487F
:1012500003F010FB4FA0FFF711FAFFF7EAFB03F0D2
:101260006AF8002010214FF6FF720346CDE90021F5
:101270000290AFF6DC0201F0A5F911E143480078D5
:101280003B490870414840784870404880788870F1
:101290003E48C078C8700846C078009008468378F9
:1012A00042780178314803F0E5FA3FA0FFF7E6F90C
:1012B000FFF7BFFB03F03FF8002010214FF6FF724D
:1012C0000346CDE900210290AFF6341201F07AF91D
:1012D000E6E02E480078144908702C4840784870A1
:1012E0002A48807888702948C078C8700846C07835
:1012F000009008468378427801780A4803F0BAFAE9
:101300002EA0FFF7BBF963E0C9E00000C8B7B6A89C
:10131000D2AAC9BEB3FDBFA8C6ACC8FDC2F0A3BF68
:101320000000000000C8000844000020C8B7B6A8AC
:10133000D2AAC9BEB3FDBFA8C6ACCBC4C2F0A3BF7E
:101340000000000000CC000848000020C8B7B6A884
:10135000D2AAC9BEB3FDC8ABB2BFBFA8C6ACC2F06B
:10136000A3BF000000C000083C00002000C400082B
:1013700040000020B001214200002242C7EBB7C567
:10138000BFA8C6ACA3A10000380000203400002094
:1013900023000020BFA8C6ACD2BBD0B4C8EBB3C9F1
:1013A000B9A6A3A100000000BFA8C6ACB6FED0B489
:1013B000C8EBB3C9B9A6A3A100000000BFA8C6AC82
:1013C000C8FDD0B4C8EBB3C9B9A6A3A10000000002
:1013D000FFF72FFB02F0AFFF002010214FF6FF7246
:1013E0000346CDE900210290AFF6542201F0EAF85D
:1013F00056E0FB480078FB490870F948407848708F
:10140000F74880788870F648C078C8700846C07879
:1014100000900846837801E02DE018E042780178DA
:10142000F14803F027FAF1A0FFF728F9FFF701FBD5
:1014300002F081FF002010214FF6FF720346CDE934
:1014400000210290AFF6B02201F0BCF828E0ECA039
:10145000FFF714F9FFF7F5FD02F06DFF00201021F2
:101460004FF6FF720346CDE900210290AFF6D82275
:1014700001F0A8F814E0E6A0FFF700F9FFF7E1FD9E
:1014800002F059FF002010214FF6FF720346CDE90C
:1014900000210290AFF6003201F094F800E000BFA6
:1014A00000BF00F00EFC0446232C02D02A2C7FF44F
:1014B000E5AD232C01D101203EBD0020FCE710B595
:1014C00000F0FFFB044602E000F0FBFB0446312C79
:1014D00003D0322C01D0332CF6D1312C07D1FFF7B9
:1014E000C4FD08B9012010BD4FF0FF30FBE7322CDE
:1014F00007D1FFF7DCFB08B90120F4E74FF0FF301C
:10150000F1E7332C01D10020EDE700BFEBE70EB58A
:10151000FFF703F8002010214FF6FF720346CDE9D4
:1015200000210290AFF6F432014601F035F90020B7
:1015300010214FF6FF720346CDE900210290B9A2B7
:1015400001460F2001F03EF8002010214FF6FF72F7
:101550000346CDE900210290AFF6184201F01CF9D4
:10156000002010214FF6FF720346CDE900210290C2
:10157000AEA20F2001F026F8002010214FF6FF72D6
:101580000346CDE900210290AFF63842202101F058
:1015900003F9002010214FF6FF720346CDE9002128
:1015A0000290AFF6244220210F2001F00BF80EBD6F
:1015B00010B5012404E0FFF7AAFFFFF780FF0446FF
:1015C000012CF8D0604208B1012010BD0020FCE7DA
:1015D000FEB500240025002696A0FFF74FF8002056
:1015E00010214FF6FF720346CDE900210290AFF2C1
:1015F0009C7200F0E7FF002010214FF6FF720346B7
:10160000CDE9002102904122112001F021F80020B3
:1016100010214FF6FF720346CDE900210290AFF290
:101620009072222000F0CEFF00F04BFB044635E024
:10163000302C01DB392C01DD412C15D106EB860065
:1016400004EB4000303886B200201021CDE90001C3
:10165000029005EBC5004FF478432246502100F07C
:10166000F7FF681CC5B216E02A2C14D10A2096FB9D
:10167000F0F086B24FF6FF7005EBC50101F10902EB
:1016800005EBC5010939009088B26023502100F0B4
:101690001FFC681EC5B200F014FB0446232C02D0C8
:1016A000B6F5967FC4DD232C0DD1112E02D101F0A9
:1016B000B2FC02E0304602F0F9F8AFF2F470FEF747
:1016C000DDFF0120FEBD61A0FEF7D8FFFFF7B9FCEA
:1016D0004FF4FA7002F0E3FF4FF0FF30F2E710B57D
:1016E00000F0EFFA044602E000F0EBFA0446312C79
:1016F00003D0322C01D0332CF6D1312C04D101F09F
:1017000099FF4FF0FF3010BD322C03D1FFF760FF7F
:101710004042F8E7332C01D10020F4E700BFF2E7A4
:101720000EB5FEF7FAFE002010214FF6FF720346B9
:10173000CDE900210290AFF60462014601F02CF8D9
:10174000002010214FF6FF720346CDE900210290E0
:1017500041A201460F2000F035FF002010214FF676
:10176000FF720346CDE900210290AFF6286201F036
:1017700013F8002010214FF6FF720346CDE9002137
:10178000029038A20F2000F01DFF002010214FF61C
:10179000FF720346CDE900210290AFF64862202196
:1017A00000F0FAFF002010214FF6FF720346CDE94A
:1017B00000210290AFF6386220210F2000F002FFD6
:1017C0000EBD10B5012404E0FFF7AAFFFFF787FF65
:1017D0000446012CF8D00CB9002010BD48E00000F0
:1017E000340000204800002000CC0008BFA8C6AC90
:1017F000CBC4D0B4C8EBB3C9B9A6A3A10000000004
:10180000BFA8C6ACD0B4C8EBCAA7B0DCA3A1000087
:10181000B4CBBFA8C6ACD2D1BEADD0B4C8EBA3A1E7
:1018200000000000D0B4BFA800000000C9BEBFA8DF
:1018300000000000CAE4C8EBC9BEB3FDB5C4D6B809
:10184000CEC6B1E0BAC5A3BA00000000B1E0BAC587
:10185000CEDED0A7A3A10000C2BCC8EBD6B8CEC6CE
:1018600000000000C9BEB3FDD6B8CEC6000000001F
:10187000012010BD10B5002400F023FA044602E058
:1018800000F01FFA0446312C07D0322C05D0332C3F
:1018900003D0342C01D0352CF2D1312C05D19FA0AE
:1018A000FEF7ECFEFEF7FBFE10BD322C02D1FFF777
:1018B00088FFF9E7332C02D1FFF77AFEF4E7342CE6
:1018C00005D19AA0FEF7DAFEFFF796F9ECE70120C2
:1018D000EAE730B585B00024FEF71FFE0020102196
:1018E0004FF6FF720346CDE90021029094A2014613
:1018F00000F068FE70E000F0E4F9054635E0082CE1
:1019000003DB00F0DEF905462FE0302D01DB392D39
:1019100003DD412D13DB442D11DC00201021CDE926
:10192000000104EBC401029088B24FF478432A46C8
:10193000502100F08DFE03A80555641C11E02A2DEE
:101940000FD14FF6FF7004EBC40109318AB204EBEA
:10195000C4010939009088B26023502100F0B8FA20
:10196000641E00F0AEF9054600BF232D01D0002C07
:10197000C5DA601C10B9002005B030BD082203A9EB
:101980007448FEF7E5FE40B173A0FEF777FE4FF412
:10199000FA7002F084FE0120EEE7AFF6A030FEF709
:1019A0006DFE002010214FF6FF720346CDE90021A5
:1019B00002906CA2112100F005FEFEF7AEFD0020A2
:1019C00010214FF6FF720346CDE9002102905CA280
:1019D000014600F0F7FD00248DE770B500250024D6
:1019E0004FF4FA7002F05BFE0121880704F0BEF9A3
:1019F0000121614804F0BAF9FFF777F8FEF7E6FE37
:101A0000044610E0601C58B9FFF763FF50B104E0D2
:101A1000FEF78EFDFFF72EFF0546002DF8D001E002
:101A2000FFF727F80024002CECD170BD10B5534807
:101A300002F047FF524908705048801C02F041FFF5
:101A40004F4948704D48001D02F03BFF4C498870DB
:101A50004A48801D02F035FF4949C870494802F0E4
:101A600030FF494908704748801C02F02AFF464968
:101A700048704448001D02F024FF434988704148E3
:101A8000801D02F01EFF4049C870404802F019FF57
:101A90003F4908703D48801C02F013FF3C494870E4
:101AA0003A48001D02F00DFF394988703748801D03
:101AB00002F007FF3649C870364802F002FF364987
:101AC00008703448801C02F0FCFE334948703148ED
:101AD000001D02F0F6FE304988702E48801D02F08D
:101AE000F0FE2D49C87010BD08B50121102003F08B
:101AF000A5FA4FF40040ADF8000010208DF8030067
:101B000003208DF802006946244802F0DBFF4FF401
:101B10000041224803F085F808BD0000C7EBC9E882
:101B2000D6C3C3DCC2EBA3BA00000000C7EBC9E810
:101B3000D6C3BFAAB7A2D5DFC3DCC2EBA3BA0000ED
:101B4000C7EBCAE4C8EBBFAAB7A2D5DFC3DCC2EBC0
:101B5000000000001A000020CAE4C8EBD5FDC8B799
:101B6000A3A10000C7EBD6D8D0C2CAE4C8EBC3DC3F
:101B7000C2EBA3A1000000000004004000C0000868
:101B80003C00002000C400084000002000C80008FD
:101B90004400002000CC0008480000200010014054
:101BA00008B50121102003F049FA4FF4C040ADF808
:101BB000000010208DF8030003208DF80200694614
:101BC0002C4802F07FFF4FF4C0412A4803F027F869
:101BD00008BD08B50121082003F030FA6020ADF8F7
:101BE000000010208DF8030003208DF802006946E4
:101BF000214802F067FF60211F4803F012F808BD7A
:101C000010B500201D49086020211B4803F007F88B
:101C10004FF47A7002F043FD4FF47A7002F03FFD0A
:101C20004FF47A7002F03BFD2021134802F0F9FFD7
:101C300001201349C1F8B80110BD10B500200F49AB
:101C4000086040210C4802F0EAFF4FF47A7002F07D
:101C500026FD4FF47A7002F022FD4FF47A7002F004
:101C60001EFD4021044802F0DCFF01200449C1F8B8
:101C7000B80110BD00100140000C0140B801224223
:101C80000000224208B50121082003F0D7F91020F6
:101C90008DF803004FF47060ADF8000003208DF85C
:101CA00002006946894802F00DFF48208DF80300C4
:101CB0004FF47040ADF800006946844802F002FF1E
:101CC00008BD70B5002400254FF470617F4802F014
:101CD000A8FF0A2002F0BFFC7C4802F08FFF040A34
:101CE000F02C76D1322002F0DAFC2101774802F0A4
:101CF00098FF0A2002F0AFFC744802F07FFF040A4C
:101D0000F02C66D00021714802F092FF052002F00D
:101D1000C6FC4FF47E416D4802F08AFF6B4802F02A
:101D20006DFFF02101EA2020F02823D0142002F0DA
:101D3000B6FC664802F062FFF02101EA2020F0289C
:101D400018D0624802F05AFFFE2101EA20247E2CBE
:101D50000BD0BE2C07D0DE2C03D0EE2C07D13125C2
:101D600007E0322505E0332503E0412501E00025A9
:101D700000BF00BF0021554802F05AFF052002F0C5
:101D80008EFC4FF47D41514802F052FF4F4802F063
:101D900035FFF02101EA2020F02824D0142002F0A1
:101DA0007EFC4A4802F02AFFF02101EA2020F028B8
:101DB00019D0464802F022FFFD2101EA20247D2CA3
:101DC0000CD0BD2C08D0DD2C04D0ED2C08D134254E
:101DD00008E078E0352505E0362503E0422501E0FE
:101DE000002500BF00BF0021384802F021FF052078
:101DF00002F055FC4FF47B41344802F019FF3348A0
:101E000002F0FCFEF02101EA2020F02823D014206B
:101E100002F045FC2D4802F0F1FEF02101EA2020FD
:101E2000F02818D0294802F0E9FEFB2101EA20241D
:101E30007B2C0BD0BB2C07D0DB2C03D0EB2C07D199
:101E4000372507E0382505E0392503E0432501E083
:101E5000002500BF00BF00211C4802F0E9FE05205C
:101E600002F01DFC4FF47741184802F0E1FE1748DC
:101E700002F0C4FEF02101EA2020F02823D0142033
:101E800002F00DFC114802F0B9FEF02101EA202019
:101E9000F02818D00D4802F0B1FEF72101EA202405
:101EA000772C0BD0B72C07D0D72C03D0E72C07D139
:101EB0002A2507E0302505E0232503E0442501E03D
:101EC000002500BF00BF284670BD0000000C014087
:101ED0002DE9F04706460F4614461D46DDF820A0C2
:101EE000681E83B2601E82B23946304600F0B5FDEE
:101EF000B8460EE0B14606E0504600F097FD09F105
:101F000001001FFA80F9A145F6DB08F101001FFA74
:101F100080F8A845EEDBBDE8F08770B504460D46B5
:101F200016462B4622462946204600F096FD3046AE
:101F300000F07CFD70BD2DE9FF4F85B081468A46DB
:101F40000020039083460798A0EB09050898A0EBB2
:101F50000A06CDF80890CDF804A0002D01DD012778
:101F600005E00DB9002702E04FF0FF376D42002E6B
:101F700002DD4FF0010806E016B94FF0000802E05C
:101F80004FF0FF387642B54201DD2C4600E0344682
:101F9000002004901EE0019A91B2029A90B2129A27
:101FA000FFF7BBFF039828440390B3440398A04273
:101FB00005DD0398001B0390029838440290A34566
:101FC00004DDABEB040B0198404401900498401CE5
:101FD00080B20490611C04988842DCDB09B0BDE843
:101FE000F08F2DE9F84305460E4617469846089CA3
:101FF00033463A46314628460094FFF79CFF434655
:102000002A46314628460094FFF795FF43463A4654
:10201000414628460094FFF78EFF43463A46314634
:1020200038460094FFF787FFBDE8F8832DE9F047B5
:1020300006460F46904699460025444641E07A1BE5
:1020400091B2321B90B24A46FFF767FF7A1B91B2FA
:10205000321990B24A46FFF760FF3A1991B2721BEB
:1020600090B24A46FFF759FF3A1B91B2721B90B2E9
:102070004A46FFF752FF7A1991B2321990B24A4696
:10208000FFF74BFF3A1B91B2721990B24A46FFF725
:1020900044FF3A1991B2721990B24A46FFF73DFFD8
:1020A0007A1991B2321B90B24A46FFF736FF6D1C87
:1020B00005FB05F004FB040108FB08F0814200DD8C
:1020C000641EA542BBDDBDE8F0872DE9FF5F064633
:1020D000894692469B460F9C00200390009620461E
:1020E000E21704EB5272D2102146E31704EB53734C
:1020F000DB10A4EBC3030BB1012300E000231A445F
:10210000624392B2019205200290002571E005EB36
:102110008510FA4911F810009AF80010884265D12C
:1021200005EB8510F54901EB400040789AF8011065
:1021300088425BD109EB0400401E83B23019401E77
:1021400082B24946304600F088FC00274BE04FF051
:10215000000842E01098F8B905EB8510E74901EB5B
:102160004000801CC05D012101FA08F1084018B14F
:10217000584600F05BFC02E00E9800F057FC039814
:10218000401CC0B20390039890FBF4F104FB1100D3
:10219000F8B90020039023E005EB8510D74901EB47
:1021A0004000801CC05D012101FA08F1084020B107
:1021B0005A4649463046FFF7B0FE701C86B200987A
:1021C000301AA04205D1009E09F101001FFA80F9E2
:1021D00006E008F1010000F0FF08B8F1080FB9DBD4
:1021E00000BF781CC7B201988742B0DB00BF681CF3
:1021F00085B2029885428ADBBDE8FF9F2DE9FF5F2B
:102200000646894692469B460F9C00200390009606
:102210002046E21704EB5272D2102146E31704EB7A
:102220005373DB10A4EBC3030BB1012300E00023C5
:102230001A44624392B2019205200290002579E08F
:1022400005EB850000EB4510AD4911F810009AF838
:10225000001088426BD105EB850000EB4510A849C2
:1022600001EB400040789AF8011088425FD109EBF9
:102270000400401E83B23019401E82B249463046E7
:1022800000F0EBFB00274FE04FF0000846E010980D
:1022900008BB05EB850000EB4510994901EB4000B8
:1022A000801CC05D012101FA08F1084018B15846B0
:1022B00000F0BCFB02E00E9800F0B8FB0398401C55
:1022C000C0B20390039890FBF4F104FB110008BB2B
:1022D0000020039025E005EB850000EB45108849C0
:1022E00001EB4000801CC05D012101FA08F10840AB
:1022F00020B15A4649463046FFF70FFE701C86B2A1
:102300000098301AA04205D1009E09F101001FFA81
:1023100080F906E008F1010000F0FF08B8F1080FAD
:10232000B5DB00BF781CC7B201988742ACDB00BFA9
:10233000681C85B20298854282DBBDE8FF9F2DE9CB
:10234000FF5F0646894692469B460F9C00200390FD
:1023500000962046E21704EB5272D2102146E31792
:1023600004EB5373DB10A4EBC3030BB1012300E0B8
:1023700000231A44624392B201925C20029000252D
:1023800071E005EB05105F4911F810009AF8001094
:10239000884265D105EB05105A4901EB40004078B1
:1023A0009AF8011088425BD109EB0400401E83B209
:1023B0003019401E82B24946304600F04EFB0027DD
:1023C0004BE04FF0000842E01098F8B905EB05101B
:1023D0004C4901EB4000801CC05D012101FA08F16D
:1023E000084018B1584600F021FB02E00E9800F0BA
:1023F0001DFB0398401CC0B20390039890FBF4F1BE
:1024000004FB1100F8B90020039023E005EB051050
:102410003C4901EB4000801CC05D012101FA08F13C
:10242000084020B15A4649463046FFF776FD701CF9
:1024300086B20098301AA04205D1009E09F1010031
:102440001FFA80F906E008F1010000F0FF08B8F17A
:10245000080FB9DB00BF781CC7B201988742B0DB18
:1024600000BF681C85B2029885428ADBBDE8FF9FE9
:102470002DE9FF5F0646894692469B460F9C002049
:10248000039000962046E21704EB5272D2102146C8
:10249000E31704EB5373DB10A4EBC3030BB101236D
:1024A00000E000231A44624392B201920520029098
:1024B000002581E005EB850000EBC500124911F80D
:1024C00010009AF80010884273D105EB850000EBEC
:1024D000C5000D4901EB400040789AF80110884290
:1024E00067D109EB0400401E83B23019401E82B24E
:1024F0004946304600F0B1FA002757E06CC40008A6
:10250000FAC20008C2B6000840B600084FF0000842
:1025100046E0109808BB05EB850000EBC500FE49BE
:1025200001EB4000801CC05D012101FA08F1084068
:1025300018B1584600F07AFA02E00E9800F076FAE8
:102540000398401CC0B20390039890FBF4F104FB85
:10255000110008BB0020039025E005EB850000EB8F
:10256000C500ED4901EB4000801CC05D012101FA6E
:1025700008F1084020B15A4649463046FFF7CDFCE5
:10258000701C86B20098301AA04205D1009E09F155
:1025900001001FFA80F906E008F1010000F0FF08D1
:1025A000B8F1080FB5DB00BF781CC7B201988742AD
:1025B000ACDB00BF681C85B202988542FFF67AAF9B
:1025C000BDE8FF9F2DE9FE4F8046894617469A4693
:1025D000DDE90D460C9D36E00C2C09D153463A46F8
:1025E00049464046CDE901460095FFF741FF25E009
:1025F000102C09D153463A4649464046CDE901469A
:102600000095FFF79CFE19E0182C09D153463A4675
:1026100049464046CDE901460095FFF7EFFD0DE044
:10262000202C09D153463A4649464046CDE9014659
:102630000095FFF74AFD01E0BDE8FE8FBF1C08EBE7
:1026400004001FFA80F838780028C5D100BFF3E7EE
:102650002DE9FF5F80468A4617469B460F9D002066
:102660000290CDF80080284605EBD071C1F34704F5
:102670002046E21704EB5272D2102146E31704EB16
:102680005373DB10A4EBC3030BB1012300E0002361
:102690001A446A4392B20192A7F12000C7B20AEB32
:1026A0000500401E83B208EB0400401E82B2514672
:1026B000404600F0D2F9002669E00C2D07D107EB67
:1026C0004700964901EB8000805D03901BE0102DD0
:1026D00005D1934800EB0710805D039013E0182D9F
:1026E00007D107EB47008F4901EB0010805D039095
:1026F00009E0202D05D18C4800EB8710805D039008
:1027000001E0BDE8FF9F4FF000093AE01098C8B91A
:10271000012000FA09F00399084018B1584600F06A
:1027200085F902E00E9800F081F90298401CC0B2D1
:102730000290029890FBF4F104FB1100E8B900202C
:10274000029021E0012000FA09F00399084020B12D
:102750005A4651464046FFF7E0FB08F101001FFAD8
:1027600080F80098A8EB0000A04206D1DDF80080B8
:102770000AF101001FFA80FA06E009F1010000F0F9
:10278000FF09B9F1080FC1DB00BF701C86B20198C8
:10279000864292DB00BFB4E72DE9FE4F06460F46A6
:1027A00014469846DDE90D5ADDF8309010E0CDE989
:1027B000015ACDF800902278434639463046FFF75B
:1027C00047FF284605EBD07106EB61018EB2641C11
:1027D00020780028EBD1BDE8FE8F10B5024601201D
:1027E00000E050430B1EA1F10104E1B2F9D110BD8C
:1027F0002DE9FF4F85B0074691461D46DDE913A63A
:1028000000200490304606EBD071C1F3470B002442
:1028100034E0281B401EC1B20A20FFF7DEFFB9FBDF
:10282000F0F00A21B0FBF1F201FB12080498A0B904
:10283000681EA04211DDB8F1000F0CD1002004FB8E
:102840000B71CDE900A6029088B22022129B069956
:10285000FFF7FEFE10E001200490002008F1300197
:10286000CAB204FB0B71CDE900A6029088B2129B9C
:102870000699FFF7EDFE00BF601CC4B2AC42C8DB96
:1028800009B0BDE8F08F2DE9FF4F85B007469046AF
:102890001C46DDE91396304606EBD071C1F3470BB9
:1028A0002249404605F004FC039005F0E1FB80B2AC
:1028B000049000253EE0601B401EC1B20A20FFF7D5
:1028C0008CFF0499B1FBF0F00A21B0FBF1F201FB9F
:1028D000120AA01EA84210D10020A11E01FB0B71FC
:1028E000CDE90096029088B22E22129B0699FFF73E
:1028F000AFFE681CC5B2601CC4B200200AF13001F2
:10290000CAB205FB0B71CDE90096029088B2129B0A
:102910000699FFF79DFE0BE040B600084C820008C8
:10292000C0860008B08C0008809E00080000C842E5
:10293000681CC5B2A542BEDB09B0BDE8F08F2DE929
:10294000F05F0746884615461E46DDF828900024AD
:1029500008EB0600401E83B27819401E82B2414641
:10296000384600F07AF8A24618E04FF0000B0FE06E
:1029700019F8140000F054F8012101EB440119F892
:10298000010000F04DF8641C0BF101001FFA80FB00
:10299000B345EDDB0AF101001FFA80FAAA45E4DB3A
:1029A000BDE8F09F08B50121042002F047FB3F205D
:1029B000ADF8000010208DF8030003208DF8020010
:1029C0006946B34802F07EF83F21B14802F027F98A
:1029D00008BD70B504461021AD4802F022F900256B
:1029E00017E00121AA4802F01CF904F0800020B190
:1029F0000221A74802F013F903E00221A44802F0E3
:102A000010F90121A24802F00AF96006040E681CC0
:102A1000C5B2082DE5DB10219D4802F000F970BD1C
:102A200010B504462046FFF7D4FF10BD10B504468C
:102A30002012FFF7CEFFE0B2FFF7CBFF10BD10B5BD
:102A400004460821924802F0ECF82046FFF7C1FF47
:102A500008218F4802F0E3F810BD2DE9F04104464B
:102A60000D4616461F462A20FFF7E9FF611C88B273
:102A7000FFF7DCFF711C88B2FFF7D8FF2B20FFF7B0
:102A8000DEFFA91C88B2FFF7D1FFB91C88B2FFF79F
:102A9000CDFF2C20FFF7D3FFBDE8F08110B5FFF785
:102AA00081FF04217A4802F0BCF8642001F0F7FDB0
:102AB0000421774802F0B3F8642001F0F0FD2021F2
:102AC000734802F0ACF8642001F0E9FD1120FFF733
:102AD000B6FF782001F0E3FDB120FFF7B0FF05203D
:102AE000FFF79EFF3C20FFF79BFF3C20FFF798FF7E
:102AF000B220FFF7A4FF0520FFF792FF3C20FFF76D
:102B00008FFF3C20FFF78CFFB320FFF798FF0520D5
:102B1000FFF786FF3C20FFF783FF3C20FFF780FF95
:102B20000520FFF77DFF3C20FFF77AFF3C20FFF7F1
:102B300077FFB420FFF783FF0320FFF771FFC0206A
:102B4000FFF77DFF2820FFF76BFF0820FFF768FFE6
:102B50000420FFF765FFC120FFF771FFC020FFF7DA
:102B60005FFFC220FFF76BFF0D20FFF759FF00202A
:102B7000FFF756FFC320FFF762FF8D20FFF750FFDE
:102B80002A20FFF74DFFC420FFF759FF8D20FFF7E4
:102B900047FFEE20FFF744FFC520FFF750FF1A2044
:102BA000FFF73EFF3620FFF74AFFA020FFF738FF70
:102BB000E020FFF744FF0420FFF732FF2220FFF759
:102BC0002FFF0720FFF72CFF0A20FFF729FF2E20F9
:102BD000FFF726FF3020FFF723FF2520FFF720FF18
:102BE0002A20FFF71DFF2820FFF71AFF2620FFF7F6
:102BF00017FF2E20FFF714FF3A20FFF711FF0020E8
:102C0000FFF70EFF0120FFF70BFF0320FFF708FF80
:102C10001320FFF705FFE120FFF711FF0420FFF766
:102C2000FFFE1620FFF7FCFE0620FFF7F9FE0D2041
:102C3000FFF7F6FE2D20FFF7F3FE2620FFF7F0FE4C
:102C40002320FFF7EDFE2720FFF7EAFE2720FFF7FE
:102C5000E7FE2520FFF7E4FE2D20FFF7E1FE3B20F5
:102C6000FFF7DEFE0020FFF7DBFE0120FFF7D8FEB6
:102C70000420FFF7D5FE1320FFF7D2FE3A20FFF71E
:102C8000DEFE0520FFF7CCFE2920FFF7D8FE10BDA1
:102C90000008014008B50121042002F0CFF94020CE
:102CA000ADF8000028208DF8030003208DF8020005
:102CB0006946FA4801F006FF08BD00BFF8490988D7
:102CC00001F040010029F9D0F549091D088070473D
:102CD00010B5EF20FFF7F1FF0120FFF7EEFF10BD69
:102CE00010B5F0490968080EFFF7E7FFED480068E6
:102CF000C0F30740FFF7E1FFEA480088C0F3072070
:102D0000FFF7DBFFE7490878FFF7D7FF10BD10B5E5
:102D100004462046FFF7D1FF10BD10B50446C4F3AA
:102D20000720FFF7CAFFE0B2FFF7C7FF10BD10B5DD
:102D300004462046FFF7C1FF10BD10B5044620121F
:102D4000FFF7BBFFE0B2FFF7B8FF10BD7CB505464B
:102D5000EF208DF8000001208DF80100D1480068B7
:102D6000000E8DF80200CF480068000C8DF80300BB
:102D7000CC480088000A8DF80400CA4800788DF815
:102D8000050007208DF8060000208DF80700C649D1
:102D9000088012E0012001F082FCC348008800F4A2
:102DA000004050B10020C04908806946BF4803F088
:102DB00039FE04460CB120467CBD681E80B2051E5B
:102DC000E8D100BFF8E770B5FFF782FFFFF788FF93
:102DD0000120FFF79CFF0320FFF79FFF0120FFF773
:102DE000A6FF05263046FFF7A8FF4FF4FA60FFF76D
:102DF000ADFF05460DB16C7A00E0FF24204670BDA2
:102E00002DE9F0410546FFF763FFFFF769FF012059
:102E1000FFF77DFF0420FFF780FF0220FFF787FF09
:102E20002846FFF74AFFEF1D3846FFF786FF4FF4AD
:102E3000FA60FFF78BFF06460EB1747A00E0FF24BC
:102E40002046BDE8F08170B5FFF742FFFFF748FF6D
:102E50000120FFF75CFF0320FFF75FFF0320FFF770
:102E600066FF07263046FFF768FF4FF4FA60FFF76A
:102E70006DFF05460DB16C7A00E0FF24204670BD61
:102E80002DE9F04781460D4616461F46FFF720FF05
:102E9000FFF726FF0120FFF73AFF0820FFF73DFF6D
:102EA0000420FFF744FF4846FFF707FF2812FFF70B
:102EB00004FFE8B2FFF701FF3012FFF7FEFEF0B2A9
:102EC000FFF7FBFE09F10D0000EB2520E9B20844F5
:102ED00000EB2620F1B200EB010A5046FFF72DFF70
:102EE0004FF4FA60FFF732FF044664B194F80980AA
:102EF000E07AA17A00EB01203880607B217B00EB37
:102F00000120788001E04FF0FF084046BDE8F087DF
:102F100070B5FFF7DDFEFFF7E3FE0120FFF7F7FED8
:102F20000320FFF7FAFE0520FFF701FF09263046D0
:102F3000FFF703FF4FF4FA60FFF708FF05460DB1F6
:102F40006C7A00E0FF24204670BD2DE9F041064672
:102F50000C46FFF7BDFEFFF7C3FE0120FFF7D7FECB
:102F60000620FFF7DAFE0620FFF7E1FE3046FFF706
:102F7000A4FE2012FFF7A1FEE0B2FFF79EFE06F1CD
:102F80000D0000EB2420E1B200EB01084046FFF702
:102F9000D4FE4FF4FA60FFF7D9FE07460FB17D7AF1
:102FA00000E0FF252846BDE8F0812DE9F041044608
:102FB0000D46FFF78DFEFFF793FE0120FFF7A7FEFA
:102FC0000720FFF7AAFE0C20FFF7B1FE2012FFF743
:102FD00074FEE0B2FFF771FE2812FFF76EFEE8B252
:102FE000FFF76BFE142000EB2420E1B2084400EB55
:102FF0002520E9B200EB01084046FFF79EFE4FF4A2
:10300000FA60FFF7A3FE07460FB17E7A00E0FF26C5
:103010003046BDE8F08170B5FFF75AFEFFF760FE5D
:103020000120FFF774FE0320FFF777FE0D20FFF766
:103030007EFE11263046FFF780FE4FF4FA60FFF760
:1030400085FE05460DB16C7A00E0FF24204670BD78
:103050002DE9F04106460C46FFF73AFEFFF740FE29
:103060000120FFF754FE0520FFF757FE0E20FFF763
:103070005EFE3046FFF721FE2046FFF71EFE3019A8
:1030800000F114084046FFF758FE4FF4FA60FFF7CE
:103090005DFE074667B17D7A0BE000000008014045
:1030A0000038014028000020560000207800002051
:1030B000FF252846BDE8F0812DE9F0410546FFF7E0
:1030C00007FEFFF70DFE0120FFF721FE0320FFF7AB
:1030D00024FE0F20FFF72BFE13273846FFF72DFEA7
:1030E0004FF47A70FFF732FE0446BCB1667AE07B9B
:1030F000A17B00EB01202880607CA870A07C0006EA
:10310000E17C00EB0140217D00EB0120617D084462
:103110006860E07D2872607E687200E0FF263046BD
:10312000BDE8F0812DE9F0410446FFF7D1FDFFF73E
:10313000D7FD0120FFF7EBFD0720FFF7EEFD15207F
:10314000FFF7F5FD200EFFF7B8FDC4F30740FFF7CA
:10315000B4FDC4F30720FFF7B0FDE0B2FFF7ADFD0B
:103160001D2000EB1460C4F307410844C4F3072199
:103170000844E1B247183846FFF7DFFDB148046064
:103180004FF4FA60FFF7E2FD06460EB1757A00E0F3
:10319000FF25AC4804602846BDE8F0812DE9F047E2
:1031A00081460E46FFF794FDFFF79AFD0120FFF7D9
:1031B000AEFD2420FFF7B1FD1820FFF7B8FD48460B
:1031C000FFF77BFD002407E0305DFFF776FD305D03
:1031D000384487B2601CC4B2202CF5DB09F13D00F5
:1031E000384487B23846FFF7A8FD4FF4FA60FFF77E
:1031F000ADFD054615B195F8098001E04FF0FF08D7
:103200004046BDE8F0872DE9F04707468846FFF7BE
:103210005FFDFFF765FD0120FFF779FD0420FFF753
:103220007CFD1920FFF783FD3846FFF746FD07F1C7
:103230001E094846FFF781FD4FF4FA60FFF786FD4F
:10324000064666B1757A002406E004F10A00305C97
:1032500008F80400601CC4B2202CF6DB00E0FF2557
:103260002846BDE8F0872DE9F04781460D46164611
:103270001F46FFF72DFDFFF733FD0120FFF747FD48
:103280000820FFF74AFD1B20FFF751FD4846FFF7D6
:1032900014FD2812FFF711FDE8B2FFF70EFD301202
:1032A000FFF70BFDF0B2FFF708FD09F1240000EB7A
:1032B0002520E9B2084400EB2620F1B200EB010A18
:1032C0005046FFF73AFD4FF4FA60FFF73FFD044622
:1032D00064B194F80980E07AA17A00EB012038808B
:1032E000607B217B00EB0120788001E04FF0FF083C
:1032F0004046BDE8F0872DE9F0410646FFF7E8FCBF
:10330000FFF7EEFC0120FFF702FD0320FFF705FDAC
:103310001D20FFF70CFD21273846FFF70EFD4FF467
:10332000FA60FFF713FD044634B1657AE07AA17ABA
:1033300000EB0120308000E0FF252846BDE8F08149
:1033400010B50446FFF7C4FCFFF7CAFC0120FFF7E5
:10335000B4FC0020FFF7B1FC0020FFF7AEFCC82052
:1033600001F09DF93848008800F4004008B3374860
:103370000078EF281AD135484078012816D1334813
:103380008079072812D13148807800062F49C97802
:1033900000EB01402D49097900EB01202B494979C7
:1033A0000844206000202849088010BD00202649DC
:1033B00008800120F9E7014621293ED2DFE801F02B
:1033C00011131517191B1D1F212325273D3D3D3DB9
:1033D000292B3D3D3D2D3D3D2F313335373D3D3989
:1033E0003B001BA02BE01BA029E01EA027E022A091
:1033F00025E026A023E02DA021E034A01FE03AA084
:103400001DE047A01BE049A019E04CA017E04FA029
:1034100000BF57A013E05AA011E05DA00FE065A027
:103420000DE068A00BE06AA009E06DA007E071A0C4
:1034300005E075A003E077A001E079A000BF00BF20
:10344000704700002800002056000020780000206F
:103450004F4B0000CAFDBEDDB0FCBDD3CAD5B4EDF4
:10346000CEF30000B4ABB8D0C6F7C9CFC3BBD3D03E
:10347000CAD6D6B800000000C2BCC8EBD6B8CEC6CB
:10348000CDBCCFF1CAA7B0DC00000000D6B8CEC6D4
:10349000CDBCCFF1CCABB8C9A1A2CCABB5ADB6F821
:1034A000C9FAB2BBB3C9CCD8D5F70000D6B8CEC6DE
:1034B000CDBCCFF1CCABCAAAA1A2CCABBAFDB6F8B9
:1034C000C9FAB2BBB3C9CCD8D5F70000D6B8CEC6BE
:1034D000CDBCCFF1CCABC2D2B6F8C9FAB2BBB3C93E
:1034E000CCD8D5F700000000D6B8CEC6CDBCCFF101
:1034F000D5FDB3A3A3ACB5ABCCD8D5F7B5E3CCAB76
:10350000C9D9A3A8BBF2C3E6BBFDCCABD0A1A3A98C
:10351000B6F8C9FAB2BBB3C9CCD8D5F700000000E1
:10352000D6B8CEC6B2BBC6A5C5E40000C3BBCBD1DE
:10353000CBF7B5BDD6B8CEC600000000CCD8D5F7C5
:10354000BACFB2A2CAA7B0DC00000000B7C3CECA8F
:10355000D6B8CEC6BFE2CAB1B5D8D6B7D0F2BAC5D2
:10356000B3ACB3F6D6B8CEC6BFE2B7B6CEA70000AE
:10357000C9BEB3FDC4A3B0E5CAA7B0DC000000001B
:10358000C7E5BFD5D6B8CEC6BFE2CAA7B0DC00003B
:10359000BBBAB3E5C7F8C4DAC3BBD3D0D3D0D0A786
:1035A000D4ADCABCCDBCB6F8C9FAB2BBB3C9CDBCA8
:1035B000CFF10000B6C1D0B420464C41534820B3EF
:1035C000F6B4ED00CEB4B6A8D2E5B4EDCEF300006B
:1035D000CEDED0A7BCC4B4E6C6F7BAC50000000072
:1035E000BCC4B4E6C6F7C9E8B6A8C4DAC8DDB4ED11
:1035F000CEF30000BCC7CAC2B1BED2B3C2EBD6B8CC
:10360000B6A8B4EDCEF30000D6B8CEC6BFE2C2FA7B
:1036100000000000B5D8D6B7B4EDCEF3000000002E
:10362000C4A3BFE9B7B5BBD8C8B7C8CFC2EBD3D026
:10363000CEF300002DE9FE430027B846B946002529
:10364000002627E1FCF769FFB9F1050F35D2DFE865
:1036500009F003356992AA0008F1010000F0FF08A3
:10366000002010214FF6FF720346CDE900210290A1
:10367000A8A20146FEF7A6FFFFF7A5FB044602E05D
:10368000FFF7A1FB0446002CFAD10120FFF7B8FB9D
:1036900004464CB9FCF741FFA2A0FCF7EFFF4FF046
:1036A00000084FF0010904E0A1A0FCF7E7FF4FF08C
:1036B00000094FF47A7000F0F2FFE6E008F1010033
:1036C00000F0FF08FCF729FF002010214FF6FF72E1
:1036D0000346CDE90021029098A20146FEF772FF51
:1036E000FFF771FB044602E0FFF76DFB0446002C78
:1036F000FAD10220FFF784FB04464CB9FCF70DFF1A
:1037000088A0FCF7BBFF4FF000084FF0020904E06F
:1037100087A0FCF7B3FF4FF000094FF47A7000F078
:10372000BEFFB2E08CA0FCF7A9FFFFF78CFB0446BC
:103730004FF4FA7000F0B3FF3CB9FCF7EEFE8AA03C
:10374000FCF79CFF4FF0030910E08AA0FCF796FFFE
:10375000002010214FF6FF720346CDE900210290B0
:1037600087A2FEF72FFF4FF00008C1464FF47A7092
:1037700000F095FF89E0FCF7D0FEFFF7C9FB044697
:103780003CB9FCF7CAFE81A0FCF778FF4FF00409B2
:1037900004E04FF0000980A0FCF770FF4FF47A704E
:1037A00000F07DFF71E0FCF7B8FE7EA0FCF766FF3D
:1037B000002010214FF6FF720346CDE90021029050
:1037C0007BA21121FEF7E8FFFEF77BFA05461BE01E
:1037D000302D16DB392D14DC00201021CDE900013D
:1037E000029007EBC7004FF478432A465021FEF7BA
:1037F0002FFF781CC7B206EB860005EB400030387F
:1038000086B2FEF75EFA0546232DE1D1B6F5067FB6
:1038100005DB4FF0000968A0FCF730FF35E03146CA
:103820000220FFF792FB044664BBFCF776FE65A01E
:10383000FCF724FF6648FFF75EFD002010214FF6DD
:10384000FF720346CDE90021029062A2FEF7BAFEA4
:1038500010204FF6FF710022CDE90021029061484F
:1038600000885B490988401A82B203231021712025
:10387000FEF7BEFF40F2DC5000F011FFFCF74DFEFA
:10388000BDE8FE834FF0000900BF00BF4FF4487051
:1038900000F005FFD6E670B50446FCF73EFE204674
:1038A000FFF789FD0546FCF7E9FE70BD70B50546DA
:1038B0004DA0FCF7E3FE01212846FFF776FB044606
:1038C0001CB94CA0FCF7DAFE02E02046FFF7E3FF4C
:1038D0004FF4966000F0E3FE3D48FFF70CFD70BD2D
:1038E00010B5FFF770FA04468CB90120FFF788FA8B
:1038F000044664B9424B4FF4967200210120FFF751
:10390000B2FC04460CB9012010BD0020FCE70020E9
:10391000FAE70000C7EBB0B4D2BBB4CECAD6D6B873
:1039200021000000CAE4C8EBB3C9B9A62100000019
:10393000CAE4C8EBCAA7B0DC21000000C7EBD4D9A9
:10394000B0B4D2BBB4CECAD6D6B821202020202015
:103950002020202020200000D5FDD4DAB6D4B1C824
:10396000D6B8CEC600000000B6D4B1C8B3C9B9A657
:1039700021000000B6D4B1C8CAA7B0DC0000000026
:10398000C7EBD6D8D0C2B0B421000000C2BCC8EB8F
:10399000B3C9B9A621000000D4D8C8EBCAA7B0DCCF
:1039A000A3A10000C7EBCAE4C8EBB1E0BAC521008F
:1039B0003C312D3533353E00CCEDBCD3CAA7B0DC4D
:1039C00021000000CCEDBCD3B3C9B9A62100000092
:1039D0002C000020BFC9D3C3D6B8CEC6D3E0C1BF28
:1039E000CEAA00006C000020C9BEB3FDD6B8CEC67A
:1039F00000000000C9BEB3FDB3C9B9A6A3A1000071
:103A00002E00002010B50121604802F078FC68B15A
:103A10005F48008840F400405D49088001215B4810
:103A200002F07EFC0021594802F0A0F910BD7FB5DC
:103A300005460C460121042001F00DFBADF80450B1
:103A4000ADF800400020ADF80600ADF80200694670
:103A50004E4801F02FFE012211464C4802F0A1F918
:103A600001214A4802F082F91E208DF80C00002046
:103A70008DF80D0001208DF80E008DF80F0003A8C1
:103A800000F057FF7FBD7FB505460C460121084673
:103A900001F0E1FAADF80450ADF800400020ADF8B7
:103AA0000600ADF8020069464FF0804001F002FECA
:103AB00001221146900702F074F900214FF0804076
:103AC00002F054F91C208DF80C0002208DF80D0036
:103AD0008DF80E0001208DF80F0003A800F029FFDB
:103AE0007FBD10B50121880702F009FC30B101202B
:103AF000284908700121800702F012FC10BD7FB533
:103B000005460C460121022001F0A5FAADF8085047
:103B1000ADF804400020ADF80A00ADF8060001A998
:103B20001D4801F0C7FD012211461B4802F039F97A
:103B30001D208DF8000002208DF8010003208DF873
:103B4000020001208DF80300684600F0F2FE01211A
:103B5000114802F00BF97FBD10B501210E4802F0AB
:103B6000CEFB90B14FF400410C4801F03EF840B15B
:103B70000B48007828B101200A4908700020084944
:103B800008700121044802F0CBFB10BD0008004082
:103B900056000020320000200004004000080140D0
:103BA0004E0000203300002008B50121042001F060
:103BB00045FA4FF48070ADF8000010208DF8030036
:103BC00003208DF802006946FD4800F07BFF0121CB
:103BD000082001F033FA1020ADF8000004208DF821
:103BE000030003208DF802006946F64800F06AFFE2
:103BF0000121082001F022FA0220ADF80000102077
:103C00008DF8030003208DF802006946ED4800F0AE
:103C100059FF0121082001F011FA0120ADF8000040
:103C200010208DF8030003208DF802006946E54856
:103C300000F048FF0121042001F000FA8020ADF8D7
:103C4000000010208DF8030003208DF80200694663
:103C5000DB4800F037FF08BD2DE9F04106460D4670
:103C60000121D84800F0DDFF8021D54800F0D9FFC0
:103C70007E2000EA4607082417E007F0800020B104
:103C80000221D04800F0CBFF03E00221CD4800F034
:103C9000C8FF0121CB4800F0C2FF7806070E0121C2
:103CA000C84800F0BEFF601EC4B2002CE5DC08244A
:103CB00017E005F0800020B10221C24800F0AFFFFC
:103CC00003E00221BF4800F0ACFF0121BD4800F035
:103CD000A6FF6806050E0121BA4800F0A2FF601E8B
:103CE000C4B2002CE5DC8021B54800F098FF01212A
:103CF000B44800F094FFBDE8F0812DE9F04106469C
:103D000000258021AE4800F08CFF7E2000EA4600AE
:103D100040F08007082417E00121AA4800F081FF45
:103D200007F0800020B10221A64800F078FF03E0F0
:103D30000221A44800F075FF0121A24800F06FFFA6
:103D40007806070E601EC4B2002CE5DC082413E0E0
:103D500001219C4800F065FF6806050E0121994885
:103D600000F05DFF1021974800F03FFF012801D1CE
:103D700045F00105601EC4B2002CE9DC80219048AA
:103D800000F04DFF01218F4800F049FF2846BDE8B3
:103D9000F08170B505460C4600262846FFF7ADFFBA
:103DA000064646EA04012846FFF756FF70BD70B587
:103DB00005460C4600262846FFF79FFF064626EAE2
:103DC00004012846FFF748FF70BD2DE9FE4F064667
:103DD000884691469A46DDF830B0FE2002900020D9
:103DE000019000900C2E06D00E2E09D112200190C9
:103DF0001020009005E0772001903020009000E036
:103E000000BF00BF019840F080010220FFF724FFAF
:103E100080210420FFF7CBFF00210120FFF71CFFCA
:103E200080210A20FFF7B5FF002505E018F80510EE
:103E30000920FFF711FF6D1C4D45F7D331460120D6
:103E4000FFF70AFF0C2E03D180210D20FFF7A1FF01
:103E50004FF4FA6500BF0420FFF74FFF04466D1EC4
:103E600035B104F0010018B9009820400028F2D0C4
:103E700080210D20FFF79BFF95B30620FFF73DFF44
:103E800000F01B0068BB002002900198204000F069
:103E9000010008B1FF2002900C2E24D10A20FFF768
:103EA0002CFF04460C20FFF728FF00F007072FB176
:103EB000601E07EBC000CBF8000002E0E000CBF88A
:103EC000000004B90124122C00DD1224002505E0B5
:103ED0000920FFF712FF0AF805006D1CA542F7D371
:103EE00001E0FE20029080210C20FFF752FF00210C
:103EF0000120FFF7B1FE0298BDE8FE8F70B588B0D3
:103F000005460C4608210846FFF751FF07210D2002
:103F1000FFF7A2FE03211420FFF73BFF8DF80850A6
:103F200007A802AB012202A900900C20FFF74DFF69
:103F300006464EB90798102806D19DF80800207053
:103F40009DF80900607000E0FE26304608B070BDA4
:103F5000F0B587B00546002708210846FFF727FF80
:103F600000210D20FFF778FE80210E20FFF71FFFB4
:103F700093208DF8040020208DF8050006A801ABE1
:103F8000022201A900900C20FFF71FFF064686B908
:103F9000002407E001A8005D285501A8005D474006
:103FA000601CC4B2042CF5DB01A8005DB84200D04F
:103FB000FE2680210E20FFF7ECFE304607B0F0BD54
:103FC00000080140000C01402DE9F04107468846F9
:103FD000154604210520FFF7EAFE00210120FFF726
:103FE0003BFE80210A20FFF7D4FE002405E0395D66
:103FF0000920FFF731FE601CC4B24445F7DB032102
:104000000120FFF729FEFF2400BF0520FFF775FE02
:104010000646601EC4B21CB106F004000028F4D0AD
:104020002220FFF76AFE28702120FFF766FE6870E5
:10403000BDE8F08170B588B0054693208DF8080082
:1040400070208DF8090000208DF80E0000240BE090
:10405000295D02AAA01C11549DF80E00295D48405C
:104060008DF80E00601CC4B2042CF1DB0DF10F02C0
:10407000072102A8FFF7A8FF08210846FFF797FECF
:1040800007A802AB092202A900900C20FFF79DFEB1
:10409000064626B90798182801D1002600E0FE261A
:1040A000304608B070BD2DE9F04387B006460F4694
:1040B000904699468DF804608DF80570002406E05E
:1040C00018F8041001AAA01C1154601CC4B2062CDC
:1040D000F6DB002407E019F8041001AA04F1080037
:1040E0001154601CC4B2062CF5DB06A801AB0C22EF
:1040F00001A900900E20FFF768FE05462DB90820A3
:10410000FFF7FBFD00F0080000B9FE25284607B0C8
:10411000BDE8F083F0B587B005460E4630208DF837
:1041200004008DF805500DF10602022101A8FFF7E9
:104130004BFF06A801AB042201A900900C20FFF759
:1041400044FE074667B90698902809D1002404E088
:1041500001A8005D3055601CC4B2102CF8DB00E0F3
:10416000FE27384607B0F0BDF0B587B006460F46CB
:10417000A0208DF804008DF805600DF106020221E3
:1041800001A8FFF721FF06A801AB042201A90090B6
:104190000C20FFF71AFE054645B90698042805D1FC
:1041A0009DF8040000F00F000A2800D0FE250DBB8A
:1041B000002404E0385D01A90855601CC4B2102C2D
:1041C000F8DB05AA102101A8FFF7FEFE06A801AB47
:1041D000122201A900900C20FFF7F7FD054645B912
:1041E0000698042805D19DF8040000F00F000A2865
:1041F00000D0FE25284607B0F0BD00B587B050209E
:104200008DF8040000208DF805000DF10602022152
:1042100001A8FFF7D9FE06A801AB042201A900906E
:104220000C20FFF7D2FD002007B000BD002107E001
:10423000002200E0521C4EF660239A42FAD3491C39
:104240008142F5D3704710B54FF480718C4800F06F
:10425000E6FC0120FFF7EAFF4FF48071884800F088
:10426000E0FC0120FFF7E2FF4FF48071844800F08A
:10427000D6FC0A20FFF7DAFF0F210120FFF7ECFC44
:104280003D211120FFF7E8FC1E212D20FFF7E4FC63
:1042900000212C20FFF7E0FC8D212A20FFF7DCFC19
:1042A0003E212B20FFF7D8FC40211520FFF7D4FC3E
:1042B000002010BD10B51420FFF71FFD044604F0C8
:1042C000030018B903211420FFF763FD10BD10B5DA
:1042D0000446412C25D108210846FFF768FD3D2101
:1042E0001120FFF7B9FC86211720FFF7B5FC7F21CD
:1042F0002620FFF7B1FC1E212D20FFF7ADFC002189
:104300002C20FFF7A9FC8D212A20FFF7A5FC3E21D8
:104310002B20FFF7A1FC0120FFF788FFFFF7CAFF62
:1043200001E0FF2010BD0020FCE710B503211420A0
:10433000FFF73DFD10BD38B515E069465220FFF787
:10434000DDFD044664B169465220FFF7D7FD0446FF
:1043500034B169465220FFF7D1FD044604B138BD9F
:104360000A20FFF763FFE8E710B5FFF71DFCFFF732
:104370006AFFFFF7DAFFFFF79DFF4120FFF7A7FF76
:1043800010BD10B53F495220FFF7B8FD002873D18A
:104390003D48FFF7DDFD00286CD100243A48007845
:1043A0003A490978884213D13748407837494978E3
:1043B00088420DD13448807834498978884207D1C1
:1043C0003148C0783149C978884201D1012454E08C
:1043D0002D4800782E490978884213D12A48407820
:1043E0002B49497888420DD1274880782849897817
:1043F000884207D12448C0782549C978884201D12C
:1044000002243AE02048007822490978884213D1F2
:104410001D4840781F49497888420DD11A48807854
:104420001C498978884207D11748C0781949C9784A
:10443000884201D1032420E0134800781649097806
:10444000884213D1104840781349497888420DD1E9
:104450000D48807810498978884207D10A48C07889
:104460000D49C978884201D1042406E0002404E003
:1044700002E0FFE7052400E00624204610BD00000E
:104480000008014038000020340000203C000020DB
:104490004000002044000020480000201FB50121FA
:1044A000052000F0CBFD4FF40840ADF800002820B7
:1044B0008DF803006946464800F004FB0F210020F8
:1044C00000F016FC4FF40840029000208DF80C001C
:1044D00010208DF80D0001208DF80E0002A801F0CB
:1044E00031FF28208DF8040000208DF805000320FE
:1044F0008DF8060001208DF8070001A800F019FAD8
:104500001FBD10B54EF65F244FF4006001F071FF3F
:10451000A0B13048007818B901202E49087008E091
:104520002C480078012804D12B4908700020294923
:1045300008704FF4006001F07CFF47E04FF400404A
:1045400001F057FF002841D02448007818B9012015
:104550002249087036E021480078012817D100214F
:104560001F4801F097FE21461D4801F095FE0122EB
:1045700011461B4801F015FC0121194801F0F6FB1A
:104580000120184908700220144908701AE01348E5
:104590000078022816D10120134908700021104824
:1045A00001F078FE21460E4801F076FE0122114608
:1045B0000B4801F0F6FB0121094801F0D7FB01206F
:1045C000064908704FF4004001F033FF10BD0000B1
:1045D00000080140500000204C0000204F00002047
:1045E000000400404E0000204D00002008B50121CD
:1045F000042000F023FD4FF48050ADF8000010209F
:104600008DF8030003208DF802006946044800F08D
:1046100059FA4FF48051024800F003FB08BD000036
:104620000008014010B56FF0040000F0CCF92E48EE
:1046300000682E49B0FBF1F02D490870084600785B
:1046400000EB4001C1EBC0104FF6FF7101EAC00062
:104650002849088010BD0146254A12784A434FF088
:10466000E0235A6100229A611A46126942F001025F
:104670001A6100BF4FF0E022106900F001021AB188
:1046800000F48032002AF5D04FF0E022126922F0C7
:1046900001024FF0E0231A6100229A61704701463F
:1046A000144A12884A434FF0E0235A6100229A616B
:1046B0001A46126942F001021A6100BF4FF0E0226F
:1046C000106900F001021AB100F48032002AF5D01E
:1046D0004FF0E022126922F001024FF0E0231A614C
:1046E00000229A61704700000000002000127A004A
:1046F000520000205400002010B540F225515748C8
:1047000000F0C0FEF8B1554800F03CFEC4B2544879
:10471000008800F40040B0B951480088B0F5C87F67
:1047200012DA00214F4801F0B5FD4D48008818B954
:1047300001214C4801F01AFB49490888411C484AAC
:10474000118049490C5405E04548008840F4004078
:104750004349088010BD10B586B0044601210420ED
:1047600000F06CFC0121880300F068FC3B4800F07D
:10477000C9FC4FF40070ADF8100003208DF8120052
:1047800018208DF8130004A9384800F09BF94FF465
:104790008060ADF8100048208DF8130004A933485C
:1047A00000F090F900940020ADF80400ADF8060088
:1047B000ADF80800ADF80C000C20ADF80A0025207B
:1047C0008DF8140000208DF815008DF816000120DA
:1047D0008DF8170005A800F0ACF869461F4800F0F6
:1047E000D4FC012240F225511C4800F066FD012155
:1047F0001A4800F056FD41F61F416320FFF717F9F4
:104800000020174908800021164801F0AFFA06B0D1
:1048100010BD0FB438B505A800901548009A04994A
:1048200002F0EEF800200090114802F00DF985B278
:1048300000240DE000BF4021084800F00DFE0028D4
:10484000F9D00B48015D054800F098FD601C84B26A
:10485000AC42EFDB38BC5DF814FB000000380140CF
:1048600056000020000800407800002000080140A9
:10487000080200202DE9F04104460F4615461E4669
:10488000DDF8188001F0FDFD352002F095F8204696
:1048900001F03CFE3946204601F03BFF2946A01CB2
:1048A00001F037FF3146201D01F033FF4146A01DC6
:1048B00001F02FFF352002F07FF801F0EEFDBDE89A
:1048C000F08101460888704710B5044601F0D9FD13
:1048D000352002F071F8204601F018FE352002F074
:1048E0006BF801F0DAFD10BD094880470948004720
:1048F000FEE7FEE7FEE7FEE7FEE7FEE7FEE7FEE790
:10490000FEE7FEE704480549054A064B70470000EC
:10491000FF03000831010008F8030020F809002017
:10492000F8050020F805002031490143314A1160A3
:10493000704770B5002100230F22C47804B32D4CBA
:10494000246804F4E064C4F5E064210AC1F10403BE
:10495000CA40447804FA03F18478144021430901E1
:10496000254C0678A155047804F01F050124AC40BD
:1049700005786D11AD0005F1E025C5F8004109E0AD
:10498000047804F01F050124AC401C4D0678761114
:1049900045F8264070BD1A4A0A400243154B1B1FBA
:1049A0001A60704739B1134A121D12680243114B45
:1049B0001B1D1A6006E00F4A121D126882430D4B40
:1049C0001B1D1A607047042808D14FF0E0210969C7
:1049D00041F004014FF0E022116107E04FF0E021C7
:1049E000096921F004014FF0E022116170470000D5
:1049F0000000FA050CED00E000E400E080E100E0DA
:104A000080FFFF1F10B50446CC48844208D1012125
:104A1000042000F02DFB0021042000F029FB46E0DB
:104A2000C748844208D10121082000F021FB002161
:104A3000082000F01DFB3AE0C248844208D1012161
:104A4000102000F015FB0021102000F011FB2EE0DB
:104A5000BD48844208D10121202000F009FB00213B
:104A6000202000F005FB22E0B848844208D1012153
:104A7000402000F0FDFA0021402000F0F9FA16E095
:104A8000B348844208D10121802000F0F1FA0021CE
:104A9000802000F0EDFA0AE0AE48844207D10121FF
:104AA000801500F0E5FA0021A01500F0E1FA10BD34
:104AB00010B50121084600F0DBFA0021012000F0CA
:104AC000D7FA10BD2DE9F04102460025002600204E
:104AD00000230024002791F803C00CF00F0591F883
:104AE00003C00CF0100CBCF1000F03D091F802C011
:104AF0004CEA050591F800C0BCF1000F31D01468F4
:104B000000202BE04FF0010C0CFA00F3B1F800C0CC
:104B10000CEA03069E4220D183004FF00F0C0CFAE2
:104B200003F7BC4305FA03FC4CEA040491F803C004
:104B3000BCF1280F06D14FF0010C0CFA00FCC2F8B2
:104B400014C00AE091F803C0BCF1480F05D14FF042
:104B5000010C0CFA00FCC2F810C0401C0828D1D38C
:104B60001460B1F800C0BCF1FF0F34DD54680020C0
:104B70002EE000F1080C4FF0010808FA0CF3B1F830
:104B800000C00CEA03069E4221D183004FF00F0CB7
:104B90000CFA03F7BC4305FA03FC4CEA040491F851
:104BA00003C0BCF1280F05D100F1080C08FA0CF87D
:104BB000C2F8148091F803C0BCF1480F07D100F18E
:104BC000080C4FF0010808FA0CF8C2F81080401CDD
:104BD0000828CED35460BDE8F0814FF6FF71018004
:104BE000022181700421C170704702460020936841
:104BF0000B400BB1012000E000207047014688689F
:104C000080B2704702460020D3680B400BB10120F0
:104C100000E0002070470146C86880B2704701611B
:104C20007047416170470AB1016100E0416170471E
:104C3000C16070474FF480320A43826181618261B2
:104C400082698269704702460020434B18684FF61C
:104C50008073184040EA021008433F4B18607047C9
:104C60003E49C8617047F0B50A4600230024002180
:104C7000002500F00046B6F1004F02D1364EF16932
:104C800001E0354E7168C0F3034583B200F440166D
:104C9000B6F5401F08D121F070612F4E766826F0DE
:104CA00070662D4F7E6012E000F48016B6F5801F0E
:104CB00006D1032606FA05F4A14341F0706106E02F
:104CC000460D360103FA06F6B14341F0706122B198
:104CD000460D360103FA06F6314300F00046B6F100
:104CE000004F02D11C4EF16101E01B4E7160F0BD1E
:104CF00030B500228B071C0F0F2303FA04F2164B6A
:104D000008338C1053F824309343134C08348D101F
:104D100044F8253023468C1053F824308C07240F98
:104D200000FA04F423430C4C08348D1044F8253069
:104D300030BD0A49DC3108607047000000080140BE
:104D4000000C014000100140001401400018014017
:104D5000001C0140002001400000014000002042F2
:104D6000DF48006840F00100DD49086008464068FF
:104D7000DC490840DA49486008460068DA490840DA
:104D8000D74908600846006820F48020086008467B
:104D9000406820F4FE0048604FF41F0088607047B0
:104DA000CF49096821F48031CD4A11601146096864
:104DB00021F480211160B0F5803F03D0B0F5802F41
:104DC0000ED106E0C649096841F48031C44A116039
:104DD00007E0C349096841F4A021C14A116000E01D
:104DE00000BF00BF704710B501460022002300201D
:104DF0004A11012A02D1BA4C236806E0022A02D1E4
:104E0000B74C236A01E0B64C636A01F01F0201242B
:104E100094401C400CB1012000E0002010BD38B5CA
:104E2000002000900024002500BF3120FFF7DBFFA9
:104E300005460098401C00900098B0F5A06F01D086
:104E4000002DF2D03120FFF7CEFF08B1012400E0A1
:104E50000024204638BD01460020A14A106820F0F9
:104E6000F80040EAC10010607047A0490860704730
:104E7000024600209A4B586820F47C1042EA010355
:104E80001843974B58607047984908667047014629
:104E90000020934A506820F0030008435060704798
:104EA0008F48406800F00C007047014600208C4A93
:104EB000506820F0F0000843506070470146002021
:104EC000874A506820F4E06008435060704701460C
:104ED0000020834A506820F4605040EAC1005060CE
:104EE000704729B17E4A527A02437D4B5A7204E0E0
:104EF0007B4A527A82437A4B5A7270477B49D83147
:104F00000860704701460020754A506820F4404010
:104F10000843506070470021714A20321170704A76
:104F200082F82010012802D004280AD104E00121CF
:104F30006B4A2032117005E00521694A2032117058
:104F400000E000BF00BF70476949086070476449CE
:104F5000096A0143624A1162704765494439086031
:104F6000704730B500210022002400235C4D6D689D
:104F700005F00C0121B1042905D0082923D105E051
:104F80005C4D056022E05B4D05601FE0544D6D688F
:104F900005F47012524D6D6805F48034022505EB5E
:104FA00092421CB9544D554305600BE04C4D6D6861
:104FB00005F400351DB1504D5543056002E04D4DDF
:104FC0005543056002E04B4D056000BF00BF444DF6
:104FD0006D6805F0F0010909484D6B5C0568DD401E
:104FE00045603F4D6D6805F4E061090A434D6B5C17
:104FF0004568DD4085603A4D6D6805F46051C90A29
:105000003E4D6B5C4568DD40C560354D6D6805F40F
:105010004041890B3A4D6B5CC568B5FBF3F5056102
:1050200030BD29B12E4A526902432D4B5A6104E02A
:105030002B4A526982432A4B5A61704729B1284A48
:1050400092690243264B9A6104E0254A92698243A1
:10505000234B9A61704729B1214AD2690243204B00
:10506000DA6104E01E4AD26982431D4BDA6170475F
:1050700029B11B4AD2680243194BDA6004E0184A8E
:10508000D2688243164BDA60704729B1144A12691C
:105090000243134B1A6104E0114A12698243104B18
:1050A0001A61704712494039086070470F49C86457
:1050B00070470B49C87170470948406A40F08070DA
:1050C00007494862704701460020054A92680A4035
:1050D0000AB1012000E00020704701498872704742
:1050E000001002400000FFF8FFFFF6FE0000424201
:1050F0008004424200127A0000093D00580000205E
:105100006800002010B50446FB48844209D1012103
:105110008803FFF7ADFF00214FF48040FFF7A8FFA1
:1051200032E0F648844209D101214804FFF7ADFF7F
:1051300000214FF40030FFF7A8FF25E0F04884423B
:1051400009D101218804FFF7A0FF00214FF480203E
:10515000FFF79BFF18E0EB48844209D10121C80406
:10516000FFF793FF00214FF40020FFF78EFF0BE0C5
:10517000E548844208D101210805FFF786FF002198
:105180004FF48010FFF781FF10BD2DE9F04786B086
:1051900005460E460024A24600BFA1460027B0895E
:1051A00000B100BF2F462C8A4CF6FF700440F088F7
:1051B00004432C82AC894EF6F3100440B088318948
:1051C0000843718908430443AC81AC8A4FF6FF4021
:1051D0000440B0890443AC8201A8FFF7C2FEC64870
:1051E000874202D1DDF810A001E0DDF80CA0A8890B
:1051F00000F4004040B10AEBCA0000EB0A1031682D
:105200004900B0FBF1F807E00AEBCA0000EB0A1016
:1052100031688900B0FBF1F86420B8FBF0F00401BC
:105220002009642101FB1089A88900F4004040B1E5
:10523000322000EBC900B0FBF1F000F0070004439E
:1052400008E0322000EB09106421B0FBF1F000F01F
:105250000F0004432C8106B0BDE8F0874FF41651CF
:10526000016000218180C18001810C2141810021E8
:105270008181704710B502460020108A4FF2FF036B
:1052800018400B884C8823438C882343CC882343C5
:105290001843108210BD0021018041808180C180AF
:1052A000704721B1828942F40052828104E08289F0
:1052B0004DF6FF731A4082817047F0B50346002413
:1052C00000260025002040F66A17B94200D100BF31
:1052D0001846C1F3421401F01F06012707FA06F52C
:1052E000012C01D10C3004E0022C01D1103000E07F
:1052F00014301AB107682F43076002E00768AF4314
:105300000760F0BD1AB1838A0B43838202E0838A6F
:105310008B4383827047028A4FF6F0731A400282F1
:10532000028A0A430282704782894FF2FF731A4051
:10533000828182890A438281704721B1828942F049
:105340000202828104E082894FF6FD731A40828155
:105350007047028A4FF6DF731A400282028A0A43BC
:105360000282704721B1028A42F48042028204E044
:10537000028A4BF6FF731A4002827047C1F308029B
:105380008280704701468888C0F308007047818991
:1053900041F0010181817047028BD2B20283028BFE
:1053A00042EA012202837047028B02F47F420283A9
:1053B000028B0A430283704721B1828A42F02002A5
:1053C000828204E0828A4FF6DF731A40828270473D
:1053D00021B1828A42F01002828204E0828A4FF672
:1053E000EF731A408282704721B1828A42F008022C
:1053F000828204E0828A4FF6F7731A4082827047F5
:1054000021B1828942F40042828103E08289C2F3A1
:105410000E028281704721B1828A42F40062828248
:1054200004E0828A4FF2FF731A4082827047828AB8
:105430004FF6FB731A408282828A0A438282704747
:1054400021B1828A42F00202828204E0828A4FF60F
:10545000FD731A408282704702460020B1F5007F3A
:1054600000D100BF13880B400BB1012000E00020E9
:10547000704701F40072B2F5007F00D100BFCA434B
:105480000280704770B502460024002300250020EA
:1054900040F66A16B14200D100BFC1F3421501F0D7
:1054A0001F03012606FA03F3012D02D1968933402A
:1054B00006E0022D02D1168A334001E0968A33407D
:1054C0000C12012606FA04F41688344013B10CB10C
:1054D000012000E0002070BD10B50022002340F63E
:1054E0006A14A14200D100BF0A1201249440A3B261
:1054F000DC43048010BD000000380140004400403F
:1055000000480040004C00400050004010B50446E8
:10551000FE48844208D10121C014FFF7A9FD0021F3
:10552000E014FFF7A5FDC4E0B4F1804F08D10121DC
:105530000846FFF7AAFD00210120FFF7A6FDB8E00D
:10554000F348844208D101210220FFF79EFD00218B
:105550000220FFF79AFDACE0EE48844208D1012119
:105560000420FFF792FD00210420FFF78EFDA0E04C
:10557000E948844208D101210820FFF786FD002177
:105580000820FFF782FD94E0E448844208D101211D
:105590001020FFF77AFD00211020FFF776FD88E04C
:1055A000DF48844208D101212020FFF76EFD002151
:1055B0002020FFF76AFD7CE0DA48844208D101210F
:1055C0004014FFF755FD00216014FFF751FD70E016
:1055D000D548844209D10121C804FFF749FD0021C3
:1055E0004FF40020FFF744FD63E0D048844209D126
:1055F00001210805FFF73CFD00214FF48010FFF763
:1056000037FD56E0CA48844209D101214805FFF719
:105610002FFD00214FF40010FFF72AFD49E0C54897
:10562000844208D101214020FFF72FFD00214020B6
:10563000FFF72BFD3DE0C048844208D101218020C6
:10564000FFF723FD00218020FFF71FFD31E0BB485D
:10565000844208D101218015FFF717FD0021A01514
:10566000FFF713FD25E0B648844209D10121080463
:10567000FFF7FEFC00214FF48030FFF7F9FC18E043
:10568000B048844209D101214804FFF7F1FC002110
:105690004FF40030FFF7ECFC0BE0AB48844208D13C
:1056A00001218804FFF7E4FC00214FF48020FFF77C
:1056B000DFFC10BD00220288944B98420ED0994B1B
:1056C00098420BD0B0F1804F08D0914B984205D052
:1056D000904B984202D0904B984204D14FF68F7372
:1056E0001A404B881A438D4B984207D08C4B9842F6
:1056F00004D04FF6FF431A40CB881A4302808B88B0
:1057000083850B880385814B98420BD0854B98424B
:1057100008D08B4B984205D08A4B984202D08A4BD6
:10572000984201D10B7A038601238382704770B5BA
:10573000002400220023058C4FF6FE7635400584B8
:10574000028C8388048B4FF68F752C40B51E2C403D
:105750000D882C43751E2A400D892A434D882A4303
:105760006A4DA8420BD06F4DA84208D0744DA84294
:1057700005D0744DA84202D0734DA84213D14FF604
:10578000F7752A404D892A434FF6FB752A408D88CC
:105790002A434FF6FF652B404FF6FF552B408D896E
:1057A0002B43CD892B4383800483CD888586028457
:1057B00070BD70B5002400220023058C4FF6EF76F3
:1057C00035400584028C8388048B48F6FF752C4095
:1057D0004FF6FF452C400D884FF6FF7606EA05256B
:1057E0002C434FF6DF752A400D8906EA05152A433A
:1057F0004D8806EA05152A43444DA84202D0494D7A
:10580000A8421DD14FF67F752A404D894FF6FF768D
:1058100006EA05152A434FF6BF752A408D8806EA29
:1058200005152A434FF6FF352B404FF2FF752B40ED
:105830008D8906EA85052B43CD8906EA85052B432C
:1058400083800483CD880587028470BD70B50024F1
:1058500000220023058C4FF6FF6635400584028C3C
:105860008388848B4FF68F752C404FF6FC752C4047
:105870000D882C434FF6FF552A400D894FF6FF76D1
:1058800006EA05252A434D8806EA05252A431F4DC9
:10589000A84202D0234DA8421DD14FF2FF752A40E5
:1058A0004D894FF6FF7606EA05252A434FF6FF3568
:1058B0002A408D8806EA05252A434EF6FF752B40BF
:1058C0004DF6FF752B408D8906EA05152B43CD89D2
:1058D00006EA05152B4383808483CD88858702845F
:1058E00070BD70B5002200230024058C4EF6FF76B3
:1058F00035400584038C8488828B48F6FF752A40E6
:105900004FF6FF452A400D8820E00000002C0140A2
:105910000004004000080040000C0040001000405F
:105920000014004000340140004C01400050014090
:105930000054014000180040001C004000200040BE
:105940000040014000440140004801404FF6FF760E
:1059500006EA05252A434DF6FF752B400D8906EA18
:1059600005352B434D8806EA05352B43FA4DA842F1
:1059700002D0FA4DA84208D14BF6FF752C408D8914
:105980004FF6FF7606EA85152C4384808283CD8806
:10599000A0F84050038470BD828B4FF2FF331A4051
:1059A0008283828B4FF6FF7303EA01231A438283BB
:1059B0007047F0B50C461546002200210026078CE2
:1059C0004EF6FF7C07EA0C070784828B018C4FF6AA
:1059D000FF7707EA043640F6FF473A404FF6FF7775
:1059E00007EA05273A434FF6FF7707EA03373A43BA
:1059F000D94FB8420ED0D94FB8420BD0B0F1804F3A
:105A000008D0D74FB84205D0D64FB84202D0D64FB3
:105A1000B84206D14DF6FF77394046F480573943F6
:105A200005E047F6FF57394044F4805739438283F5
:105A30000184F0BD828B4FF6F3731A408283828B10
:105A40000A4382837047F0B50C46154600220021B8
:105A50000026078C4FF6FF6C07EA0C070784828B41
:105A6000018C4FF6FF7707EA04264FF60C773A4091
:105A70004FF6FF7707EA03172F433A43B64FB84272
:105A80000ED0B64FB8420BD0B0F1804F08D0B44F13
:105A9000B84205D0B34FB84202D0B34FB84206D196
:105AA0004FF6FF57394046F48077394305E04FF20F
:105AB000FF57394044F48077394382830184F0BD35
:105AC000028B4FF2FF331A400283028B4FF6FF73B3
:105AD00003EA01231A4302837047F0B50C461546CA
